:100000001CC040C027C23EC03DC0DAC13BC088C151
:1000100039C038C037C036C035C034C033C0010322
:100020000000040000000000380002020202020288
:10003000010204081020DE02BB0411241FBECFE51C
:10004000D2E0DEBFCDBF21E0A8E3B1E001C01D9248
:10005000AB3DB207E1F711E0A0E6B0E0E0E2FAE084
:1000600002C005900D92A833B107D9F710E0CCE19A
:10007000D0E003C02197FE01C1D4CB31D107D1F725
:1000800017D3C2C4BDCF08952FB7F894FC0145859E
:1000900056853AE06095089420F478B3752378BBD0
:1000A00004C078B3742B78BB000084D183D182D193
:1000B00081D166953A9581F72FBF81E090E0089550
:1000C000DC011F96ED91FC9120A131A182A193A1A9
:1000D0002817390779F0A2A1B3A1AE0FBF1F8C91E9
:1000E00022A133A12F5F3F4F2F71332733A322A3C8
:1000F00090E008958FEF9FEF0895DC011F96ED913A
:10010000FC9120A131A182A193A12817390739F0D0
:1001100082A193A1E80FF91F808190E008958FEFED
:100120009FEF0895DC011F96ED91FC9180A191A1B4
:1001300022A133A1821B930B8F7199270895CF922F
:10014000DF92EF92FF920F931F93CF93DF936C0197
:10015000EB017B01E40EF51E10E000E0CE15DF059B
:1001600061F06991D601ED91FC910190F081E02D53
:10017000C6010995080F191FF1CFC801DF91CF9172
:100180001F910F91FF90EF90DF90CF9008952091F5
:100190007F01309180012817390781F490917D010A
:1001A00080917E01981751F0E0917D01F0E0E85CCC
:1001B000FE4F8081082E000C990B08958FEF9FEF62
:1001C000089520917F01309180012817390739F473
:1001D0008FB7F89410927E0110927D018FBF089521
:1001E000EF92FF920F931F93CF93DF93DC015C9606
:1001F000ED90FC905D97E114F10479F481E090E0DA
:1002000013969C938E93129790E080E0DF91CF91AC
:100210001F910F91FF90EF9008955196ED91FC91F1
:10022000529750968C915097982F90950FB75E9655
:100230002C915E97122F127021FD6095F894208109
:10024000112319F1282B2083E7012197F1F728E0EA
:10025000462F50E0308160FF1AC0382B3083E70111
:100260002197F1F7BA0175956795215089F7112308
:1002700081F08081892380830FBF5C968D919C9152
:100280000197F1F781E090E0C1CF2923DCCF39233A
:10029000E5CF9081892BEFCF20917F0130918001B4
:1002A0002817390769F480917E0120917D0190E043
:1002B000805C9F4F821B910960E470E078D30895C1
:1002C00090E080E0089520917F013091800128170F
:1002D0003907B9F490917D0180917E01981789F0DA
:1002E000E0917D01F0E0E85CFE4F808120917D018E
:1002F00030E02F5F3F4F2F73332720937D0190E035
:1003000008958FEF9FEF0895FC0101900020E9F719
:100310003197AF01481B590BBC018AEA91E00FCF1E
:100320001F920F920FB60F9211242F933F934F936A
:100330005F937F938F939F93AF93BF93EF93FF93BD
:100340004091B60120E038E035D034D033D032D0FF
:1003500031D0889476B3742309F0089427953A95A0
:1003600009F0F3CF27D026D0E091B901F091BA017E
:1003700080A191A101968F71992742A153A1841761
:10038000950739F0A0A1B1A1AE0FBF1F2C9391A387
:1003900080A3449AFF91EF91BF91AF919F918F916C
:1003A0007F915F914F913F912F910F900FBE0F90D2
:1003B0001F9018958091BB01982F9A95F1F7089599
:1003C0001F920F920FB60F9211242F933F938F938A
:1003D0009F93AF93BF938091810190918201A091EF
:1003E0008301B091840130917C0126E0230F2D37E9
:1003F00068F129E8230F0396A11DB11D20937C010C
:100400008093810190938201A0938301B093840132
:100410008091780190917901A0917A01B0917B014E
:100420000196A11DB11D8093780190937901A0934D
:100430007A01B0937B01BF91AF919F918F913F91D2
:100440002F910F900FBE0F901F9018950296A11D2F
:10045000B11DD4CF1F920F920FB60F9211242F937C
:100460003F934F935F936F937F938F939F93AF933C
:10047000BF93EF93FF93E0917F01F091800130975C
:1004800049F0A685B7858585968D91FF14C09C910E
:100490008923A1F4FF91EF91BF91AF919F918F912B
:1004A0007F916F915F914F913F912F910F900FBE70
:1004B0000F901F9018959C91892361F7A389B489A7
:1004C0009C918589809589238C938689978901974A
:1004D000F1F7608D718DA685B785558538E020E0F0
:1004E000CB010197F1F7822F90E095958795282F02
:1004F0004C91452309F02068315091F7868D81FD9C
:10050000209580917E0190E001968F73992730911C
:100510007D01381799F0A0917E01B0E0A85CBE4F34
:100520002C9380937E01828D938D0197F1F7A3899F
:10053000B4898C919589892B8C93ACCF868D816001
:10054000868FF1CF90E0FC01E25EFF4F3491FC0119
:10055000E05DFF4F2491FC01E65DFF4FE491EE2347
:10056000B9F0332329F03130A1F48AB58F778ABDF1
:10057000F0E0EE0FFF1FEC5DFF4FA591B4918FB738
:10058000611118C0F894EC9120952E232C938FBF05
:100590000895323019F48AB58F7DE9CF333021F4D4
:1005A00080B78F7D80BFE4CF343011F78CB58F7D5D
:1005B0008CBDDECFF894EC912E2BE8CF1092AD01DC
:1005C0001092AC0188EE93E0A0E0B0E08093AE0121
:1005D0009093AF01A093B001B093B10120E830E057
:1005E0003093AB012093AA0126E831E03093BA01A1
:1005F0002093B90122E02093B60161E06093B70136
:100600002EEF2093B8011092BB011092BF011092FF
:10061000BE018093C0019093C101A093C201B09329
:10062000C30180E990E09093BD018093BC011092DA
:10063000D3011092D2011092D5011092D4011092E0
:10064000D7011092D6011092D9011092D801809151
:10065000DA018E7F8D7F8093DA018695817068271D
:1006600084E070DF8FB7F894BC9A8FBF80E18093ED
:10067000CC0188E390E09093CE018093CD018FB7B9
:10068000F894BB98C3988FBF8091DA0181FD03C0B5
:1006900061E083E057DF83E08093C80188E08093C6
:1006A000C90186E390E09093CB018093CA0108953D
:1006B000CF93DF93CDB7DEB7C754D1090FB6F89407
:1006C000DEBF0FBECDBF83E08ABD83BF789489B7FC
:1006D000826089BF80E48CBD8FEF8DBD87EC80BFC9
:1006E00086E886B91092D7011092D6011092D501F2
:1006F0001092D4011092D3011092D2018DEC90E0AF
:100700009093D9018093D8013091C801363020F5FB
:1007100045E550E05093D3014093D2014BEC50E0BB
:100720005093D5014093D40140E950E05093D70154
:100730004093D6012BB720622BBF45E350E0509386
:10074000D0014093CF0121E001C0220F3A95EAF792
:100750002093D1010197F1F78091D6019091D701B3
:10076000892B49F1E0917F01F091800121E0EC3B80
:10077000F20709F1309739F0A389B4899C918589F2
:10078000809589238C938091DA018E7F8093DA01A2
:1007900010927E0110927D018CEB91E0909380018C
:1007A00080937F01E091CF01F091D0018081909101
:1007B000D101892B80838CE990E0A6DD86EB90E067
:1007C000A3DD80ED90E0A0DD8AEE90E09DDD84E089
:1007D00091E09ADD8EE191E097DD8CE1E0E6F0E0DA
:1007E000DE01929601900D928A95E1F78E01025CEE
:1007F0001F4F780188E0E80EF11C8091850181117E
:10080000AFC05E01E2E2AE0EB11CF50161915F0185
:100810008CEB91E0E5DC0A151B05B9F76DE08CEB7C
:1008200091E0DEDC6AE08CEB91E0DADC8FB7F894E3
:100830008090810190908201A0908301B09084010A
:100840008FBF85EB8EAF82E68FAF85E021968FAFAD
:10085000219781E022968FAF229782E023968FAF77
:10086000239724961FAE24978CA125968FAF2597AA
:100870008DA126968FAF269727961FAE279728968D
:100880001FAE2897F8013296819127969FAD279742
:10089000890F27968FAF279728969FAD2897890FA6
:1008A00028968FAF2897EE15FF0571F7D12CF9E048
:1008B000FD1528F481E0809385019FCFD12C2FB7BF
:1008C000F8948091810190918201A0918301B0916F
:1008D00084012FBF88199909AA09BB09893B9B404C
:1008E000A105B105D8F58CEB91E0D6DC892BF9F2A6
:1008F0008CEB91E0E8DCF801ED0DF11D908189139E
:10090000DDCFD39490E0B0E0A0E019A2FE01B19653
:10091000AC01BD0194E076956795579547959A95FA
:10092000D1F7242F2295207F821B8A30ACF4805D82
:100930008293DB01CA010097A105B10549F7DF01E8
:100940000D900020E9F71197AD014E1B5F0BBF0121
:100950008AEA91E0F4DBABCF895CEACF80E0ABCFF1
:10096000109285018CEB91E097DC892BD9F38CEB0D
:1009700091E0A9DCF7CF80E990E09093BD018093EE
:10098000BC0180917F01909180018C5B914071F45A
:10099000E091CF01F091D00190818091D1018095BB
:1009A000892380831092800110927F01089597FB24
:1009B000072E16F4009406D077FD08D00BD007FC64
:1009C00005D03EF4909581959F4F0895709561955F
:1009D0007F4F0895AA1BBB1B51E107C0AA1FBB1F75
:1009E000A617B70710F0A61BB70B881F991F5A95BB
:1009F000A9F780959095BC01CD010895EE0FFF1FDA
:100A00000590F491E02D099410E0CCE1D0E003C012
:100A1000FE01F4DF2196CD31D107D1F7F894FFCF55
:100A2000B5620600140000879303A0860100010050
:100A30000000320000000000000098FB00000000F1
:100A400044009F00920060007D0043000000000011
:100A5000F0009F004C016301C700E10024505542A3
:100A6000582C34302C474C4C2C302C302C302C3023
:100A70002A35430D0A0024505542582C34302C5A44
:100A800044412C302C302C302C302A34340D0A00C8
:100A900024505542582C34302C5654472C302C308E
:100AA0002C302C302A35450D0A0024505542582C44
:100AB00034302C4753562C302C302C302C302A35E7
:100AC000390D0A0024505542582C34302C475341DC
:100AD0002C302C302C302C302A34450D0A00245078
:100AE0005542582C34302C524D432C302C302C3065
:080AF0002C302A34370D0A00F6
:00000001FF
